:020000040800F2
:10000000005000209D530008994E0008A54E00089E
:10001000AB4E0008B14E0008B74E000800000000CB
:10002000000000000000000000000000F143000894
:10003000BD4E000800000000C1450008C94E000880
:10004000E5530008E5530008E5530008E5530008B0
:10005000E5530008E5530008E5530008E5530008A0
:10006000E5530008E5530008E5530008E553000890
:10007000E5530008E5530008E5530008E553000880
:10008000E5530008E5530008E5530008E553000870
:10009000E5530008E5530008E5530008E553000860
:1000A000E5530008E5530008E5530008E553000850
:1000B000E5530008E5530008E5530008E553000840
:1000C000E5530008E5530008E5530008E553000830
:1000D000E5530008E54E0008E5530008E553000825
:1000E000E5530008E5530008E55300080000000050
:1000F0000000000000000000000000000000000000
:0C01000000000000000000005FF808F1A3
:1001100010B5054C237833B9044B13B10448AFF341
:1001200000800123237010BD280200200000000081
:10013000B06F000808B5034B1BB103490348AFF388
:10014000008008BD000000002C020020B06F0008F5
:1001500010F8012B11F8013B012A28BF9A42F7D071
:10016000D01A7047034613F8012B002AFBD1181A46
:100170000138704781F0004102E000BF83F0004386
:1001800030B54FEA41044FEA430594EA050F08BF32
:1001900090EA020F1FBF54EA000C55EA020C7FEAF6
:1001A000645C7FEA655C00F0E2804FEA5454D4EB73
:1001B0005555B8BF6D420CDD2C4480EA020281EA3D
:1001C000030382EA000083EA010180EA020281EA75
:1001D0000303362D88BF30BD11F0004F4FEA0131C7
:1001E0004FF4801C4CEA113102D0404261EB4101D6
:1001F00013F0004F4FEA03334CEA133302D052425C
:1002000063EB430394EA050F00F0A780A4F1010417
:10021000D5F1200E0DDB02FA0EFC22FA05F2801851
:1002200041F1000103FA0EF2801843FA05F3594137
:100230000EE0A5F120050EF1200E012A03FA0EFCB6
:1002400028BF4CF0020C43FA05F3C01851EBE371E0
:1002500001F0004507D54FF0000EDCF1000C7EEBFD
:1002600000006EEB0101B1F5801F1BD3B1F5001F3B
:100270000CD349085FEA30004FEA3C0C04F101045A
:100280004FEA445212F5800F80F09A80BCF1004F83
:1002900008BF5FEA500C50F1000041EB045141EA05
:1002A000050130BD5FEA4C0C404141EB010111F406
:1002B000801FA4F10104E9D191F0000F04BF0146B1
:1002C0000020B1FA81F308BF2033A3F10B03B3F18F
:1002D00020020CDA0C3208DD02F1140CC2F10C021F
:1002E00001FA0CF021FA02F10CE002F11402D8BF7D
:1002F000C2F1200C01FA02F120FA0CFCDCBF41EA49
:100300000C019040E41AA2BF01EB0451294330BD17
:100310006FEA04041F3C1CDA0C340EDC04F11404F4
:10032000C4F1200220FA04F001FA02F340EA0300CB
:1003300021FA04F345EA030130BDC4F10C04C4F111
:10034000200220FA02F001FA04F340EA03002946F1
:1003500030BD21FA04F0294630BD94F0000F83F43B
:10036000801306BF81F480110134013D4EE77FEA1E
:10037000645C18BF7FEA655C29D094EA050F08BF6A
:1003800090EA020F05D054EA000C04BF194610464B
:1003900030BD91EA030F1EBF0021002030BD5FEA8F
:1003A000545C05D14000494128BF41F0004130BDB7
:1003B00014F580043CBF01F5801130BD01F000450B
:1003C00045F0FE4141F470014FF0000030BD7FEA7E
:1003D000645C1ABF194610467FEA655C1CBF0B4679
:1003E000024650EA013406BF52EA033591EA030F90
:1003F00041F4002130BD00BF90F0000F04BF002188
:10040000704730B54FF4806404F132044FF00005BA
:100410004FF0000150E700BF90F0000F04BF002133
:10042000704730B54FF4806404F1320410F0004599
:1004300048BF40424FF000013EE700BF42004FEA94
:10044000E2014FEA31014FEA02701FBF12F07F4311
:1004500093F07F4F81F06051704732F07F4208BFC8
:10046000704793F07F4F04BF41F40021704730B5CF
:100470004FF4607401F0004521F000411CE700BF1B
:1004800050EA010208BF704730B54FF000050AE09E
:1004900050EA010208BF704730B511F0004502D59F
:1004A000404261EB41014FF4806404F132045FEAA1
:1004B000915C3FF4D8AE4FF003025FEADC0C18BF4A
:1004C00003325FEADC0C18BF033202EBDC02C2F13C
:1004D000200300FA03FC20FA02F001FA03FE40EACE
:1004E0000E0021FA02F11444BDE600BF70B54FF0D2
:1004F000FF0C4CF4E06C1CEA11541DBF1CEA1355B0
:1005000094EA0C0F95EA0C0F00F0DEF82C4481EA17
:10051000030621EA4C5123EA4C5350EA013518BF37
:1005200052EA033541F4801143F4801338D0A0FB24
:1005300002CE4FF00005E1FB02E506F00042E0FBD1
:1005400003E54FF00006E1FB03569CF0000F18BFD7
:100550004EF0010EA4F1FF04B6F5007F64F540747F
:1005600004D25FEA4E0E6D4146EB060642EAC62112
:1005700041EA55514FEAC52040EA5E504FEACE2E7F
:10058000B4F1FD0C88BFBCF5E06F1ED8BEF1004F82
:1005900008BF5FEA500E50F1000041EB045170BDFE
:1005A00006F0004646EA010140EA020081EA030142
:1005B000B4EB5C04C2BFD4EB0C0541EA045170BD3E
:1005C00041F480114FF0000E013C00F3AB8014F1B8
:1005D000360FDEBF002001F0004170BDC4F1000401
:1005E000203C35DA0C341BDC04F11404C4F1200582
:1005F00000FA05F320FA04F001FA05F240EA0200DD
:1006000001F0004221F0004110EBD37021FA04F612
:1006100042EB06015EEA430E08BF20EAD37070BDCC
:10062000C4F10C04C4F1200500FA04F320FA05F02B
:1006300001FA04F240EA020001F0004110EBD3702D
:1006400041F100015EEA430E08BF20EAD37070BD9D
:10065000C4F1200500FA05F24EEA020E20FA04F376
:1006600001FA05F243EA020321FA04F001F0004125
:1006700021FA04F220EA020000EBD3705EEA430E96
:1006800008BF20EAD37070BD94F0000F0FD101F0C5
:100690000046400041EB010111F4801F08BF013CFE
:1006A000F7D041EA060195F0000F18BF704703F03C
:1006B0000046520043EB030313F4801F08BF013DC3
:1006C000F7D043EA0603704794EA0C0F0CEA13557F
:1006D00018BF95EA0C0F0CD050EA410618BF52EA39
:1006E0004306D1D181EA030101F000414FF000003F
:1006F00070BD50EA410606BF1046194652EA43064D
:1007000019D094EA0C0F02D150EA013613D195EAC0
:100710000C0F05D152EA03361CBF104619460AD108
:1007200081EA030101F0004141F0FE4141F4700112
:100730004FF0000070BD41F0FE4141F4780170BD02
:1007400070B54FF0FF0C4CF4E06C1CEA11541DBF67
:100750001CEA135594EA0C0F95EA0C0F00F0A7F869
:10076000A4EB050481EA030E52EA03354FEA013196
:1007700000F088804FEA03334FF0805545EA1313A9
:1007800043EA12634FEA022245EA111545EA106571
:100790004FEA00260EF000419D4208BF964244F108
:1007A000FD0404F5407402D25B084FEA3202B61A27
:1007B00065EB03055B084FEA32024FF480104FF4FB
:1007C000002CB6EB020E75EB030E22BFB61A75466F
:1007D00040EA0C005B084FEA3202B6EB020E75EB02
:1007E000030E22BFB61A754640EA5C005B084FEA6A
:1007F0003202B6EB020E75EB030E22BFB61A754637
:1008000040EA9C005B084FEA3202B6EB020E75EB41
:10081000030E22BFB61A754640EADC0055EA060E02
:1008200018D04FEA051545EA16754FEA06164FEA45
:10083000C30343EA52734FEAC2025FEA1C1CC0D1F1
:1008400011F4801F0BD141EA00014FF000004FF07E
:10085000004CB6E711F4801F04BF01430020B4F13F
:10086000FD0C88BFBCF5E06F3FF6AFAEB5EB030CF7
:1008700004BFB6EB020C5FEA500C50F1000041EBF4
:10088000045170BD0EF0004E4EEA113114EB5C04C1
:10089000C2BFD4EB0C0541EA045170BD41F4801194
:1008A0004FF0000E013C90E645EA060E8DE60CEA9C
:1008B000135594EA0C0F08BF95EA0C0F3FF43BAFB9
:1008C00094EA0C0F0AD150EA01347FF434AF95EA70
:1008D0000C0F7FF425AF104619462CE795EA0C0F54
:1008E00006D152EA03353FF4FDAE1046194622E721
:1008F00050EA410618BF52EA43067FF4C5AE50EAFB
:1009000041047FF40DAF52EA43057FF4EBAE12E7EA
:100910004FF0FF3C06E000BF4FF0010C02E000BFCB
:100920004FF0010C4DF804CD4FEA410C7FEA6C5CAE
:100930004FEA430C18BF7FEA6C5C1BD001B050EA51
:10094000410C0CBF52EA430C91EA030F02BF90EA3C
:10095000020F0020704710F1000F91EA030F58BFFB
:10096000994208BF90422CBFD8176FEAE37040F05D
:10097000010070474FEA410C7FEA6C5C02D150EAFB
:10098000013C07D14FEA430C7FEA6C5CD6D152EAB6
:10099000033CD3D05DF8040B704700BF844610467B
:1009A00062468C461946634600E000BF01B5FFF77A
:1009B000B7FF002848BF10F1000F01BD4DF808ED4A
:1009C000FFF7F4FF0CBF012000205DF808FB00BF1B
:1009D0004DF808EDFFF7EAFF34BF012000205DF875
:1009E00008FB00BF4DF808EDFFF7E0FF94BF0120C2
:1009F00000205DF808FB00BF4DF808EDFFF7CEFFC3
:100A000094BF012000205DF808FB00BF4DF808ED01
:100A1000FFF7C4FF34BF012000205DF808FB00BFD2
:100A20004FEA410C7FEA6C5C02D150EA013C0AD1EA
:100A30004FEA430C7FEA6C5C02D152EA033C02D1DC
:100A40004FF0000070474FF0010070474FEA41023D
:100A500012F5001215D211D56FF47873B3EB625210
:100A600012D94FEAC12343F0004343EA505311F037
:100A7000004F23FA02F018BF404270474FF00000C9
:100A8000704750EA013005D111F0004008BF6FF007
:100A9000004070474FF00000704700BF80B500AFC6
:100AA000084B1B68074A43F010031360032000F053
:100AB00023F90F2000F008F804F054F90023184639
:100AC00080BD00BF0020024080B582B000AF7860DA
:100AD000124B1A68124B1B7819464FF47A73B3FB0A
:100AE000F1F3B2FBF3F3184600F03BF90346002B99
:100AF00001D001230EE07B680F2B0AD80022796811
:100B00004FF0FF3000F003F9064A7B6813600023C2
:100B100000E0012318460837BD4680BD0C000020C8
:100B2000040000200000002080B400AF054B1B78BB
:100B30001A46054B1B681344034A136000BFBD46A9
:100B400080BC704704000020602B002080B400AF00
:100B5000024B1B681846BD4680BC7047602B0020C6
:100B600080B485B000AF78607B6803F00703FB605A
:100B70000C4BDB68BB60BA684FF6FF031340BB60E9
:100B8000FB681A02BB68134343F0BF6343F40033AE
:100B9000BB60044ABB68D36000BF1437BD4680BC4D
:100BA000704700BF00ED00E080B400AF044BDB688D
:100BB0001B0A03F007031846BD4680BC704700BF00
:100BC00000ED00E080B483B000AF0346FB7197F9FD
:100BD0000730002B0BDBFB7903F01F02064997F966
:100BE00007305B09012000FA02F241F8232000BF20
:100BF0000C37BD4680BC704700E100E080B483B094
:100C000000AF03463960FB7197F90730002B0ADB10
:100C10003B68DAB20C4997F907301201D2B20B44A3
:100C200083F800230AE03B68DAB20849FB7903F055
:100C30000F03043B1201D2B20B441A7600BF0C37EB
:100C4000BD4680BC704700BF00E100E000ED00E061
:100C500080B489B000AFF860B9607A60FB6803F0D7
:100C60000703FB61FB69C3F10703042B28BF0423BF
:100C7000BB61FB690433062B02D9FB69033B00E02F
:100C800000237B614FF0FF32BB6902FA03F3DA43C2
:100C9000BB681A407B699A404FF0FF317B6901FACB
:100CA00003F3D9437B680B40134318462437BD46F2
:100CB00080BC704780B582B000AF78607B68013B34
:100CC000B3F1807F01D301230FE00A4A7B68013B27
:100CD00053600F214FF0FF30FFF790FF054B0022CC
:100CE0009A60044B07221A60002318460837BD4655
:100CF00080BD00BF10E000E080B582B000AF78603A
:100D00007868FFF72DFF00BF0837BD4680BD80B56E
:100D100086B000AF0346B9607A60FB7300237B6145
:100D2000FFF742FF78617A68B9687869FFF790FF4A
:100D3000024697F90F3011461846FFF75FFF00BFD4
:100D40001837BD4680BD80B582B000AF0346FB7149
:100D500097F907301846FFF735FF00BF0837BD4643
:100D600080BD80B582B000AF78607868FFF7A2FFE1
:100D7000034618460837BD4680BD000080B584B0E4
:100D800000AF78600023FB737B6893F82130022B5F
:100D900005D07B6804229A630123FB7351E07B68D2
:100DA0001B681A687B681B6822F00E021A607B6859
:100DB0001B681A687B681B6822F001021A607B6856
:100DC0001B68224A934229D07B681B68204A9342C1
:100DD00022D07B681B681F4A93421AD07B681B682D
:100DE0001D4A934212D07B681B681C4A93420AD06A
:100DF0007B681B681A4A934202D14FF480130EE0BD
:100E00004FF080730BE04FF4803308E04FF48053D1
:100E100005E04FF4807302E0102300E00123114A43
:100E200053607B68012283F821207B68002283F8CD
:100E300020207B685B6B002B03D07B685B6B786842
:100E40009847FB7B18461037BD4680BD080002401E
:100E50001C000240300002404400024058000240A2
:100E60006C0002400000024080B48BB000AF78609C
:100E7000396000237B6200233B6227E101227B6A09
:100E800002FA03F3FB613B681B68FA691340BB611C
:100E9000BA69FB699A4240F016813B685B68122B85
:100EA00034D0122B0DD8022B2BD0022B04D8002BC0
:100EB00031D0012B1CD048E0032B43D0112B1BD089
:100EC00043E0894A934226D0874A934206D8874A0C
:100ED000934220D0864A93421DD036E0854A934201
:100EE00019D0854A934216D0844A934213D02CE0FD
:100EF0003B68DB683B6228E03B68DB6804333B62AD
:100F000023E03B68DB6808333B621EE03B68DB683C
:100F10000C333B6219E03B689B68002B02D1042331
:100F20003B6212E03B689B68012B05D108233B62C2
:100F30007B68FA691A6108E008233B627B68FA69FA
:100F40005A6102E000233B6200BFBB69FF2B01D85E
:100F50007B6801E07B6804337B61BB69FF2B02D8AF
:100F60007B6A9B0002E07B6A083B9B003B617B69DC
:100F70001A680F213B6901FA03F3DB431A40396A0F
:100F80003B6901FA03F31A437B691A603B685B68AB
:100F900003F08053002B00F09680594B9B69584A10
:100FA00043F001039361564B9B6903F00103BB605F
:100FB000BB68544A7B6A9B08023352F82330FB60BB
:100FC0007B6A03F003039B000F2202FA03F3DB4367
:100FD000FA681340FB607B684B4A934213D07B68EE
:100FE0004A4A93420DD07B68494A934207D07B68B6
:100FF000484A934201D1032306E0042304E002237C
:1010000002E0012300E000237A6A02F0030292006A
:101010009340FA681343FB603A497B6A9B080233AA
:10102000FA6841F823203B685B6803F48033002BA7
:1010300006D0394B1A683849BB6913430B6006E088
:10104000354B1A68BB69DB43334913400B603B687F
:101050005B6803F40033002B06D02F4B5A682E49EF
:10106000BB6913434B6006E02B4B5A68BB69DB43FB
:10107000294913404B603B685B6803F48013002BE5
:1010800006D0254B9A682449BB6913438B6006E060
:10109000214B9A68BB69DB431F4913408B603B6857
:1010A0005B6803F40013002B06D01B4BDA681A4967
:1010B000BB691343CB6006E0174BDA68BB69DB43BF
:1010C00015491340CB607B6A01337B623B681A6829
:1010D0007B6A22FA03F3002B7FF4D0AE00BF2C37DB
:1010E000BD4680BC704700BF0000211000001110F9
:1010F0000000121000003110000032100000221019
:10110000001002400000014000080140000C0140B6
:1011100000100140001401400004014080B483B07D
:1011200000AF78600B467B8013467B707B78002B8A
:1011300003D07A887B681A6103E07B881A047B6895
:101140001A6100BF0C37BD4680BC704780B586B0C1
:1011500000AF78607B68002B01D101236CE27B68D3
:101160001B6803F00103002B00F08780924B5B6843
:1011700003F00C03042B0CD08F4B5B6803F00C03C3
:10118000082B12D18C4B5B6803F48033B3F5803F9E
:101190000BD1894B1B6803F40033002B6CD07B68A8
:1011A0005B68002B68D1012346E27B685B68B3F57E
:1011B000803F06D1804B1B687F4A43F48033136025
:1011C0002EE07B685B68002B0CD17B4B1B687A4A56
:1011D00023F480331360784B1B68774A23F4802311
:1011E00013601DE07B685B68B3F5A02F0CD1724BD8
:1011F0001B68714A43F4802313606F4B1B686E4A6F
:1012000043F4803313600BE06B4B1B686A4A23F492
:1012100080331360684B1B68674A23F48023136094
:101220007B685B68002B13D0FFF790FC386108E007
:10123000FFF78CFC02463B69D31A642B01D90323C8
:10124000FAE15D4B1B6803F40033002BF0D014E08F
:10125000FFF77CFC386108E0FFF778FC02463B6949
:10126000D31A642B01D90323E6E1534B1B6803F423
:101270000033002BF0D100E000BF7B681B6803F057
:101280000203002B63D04C4B5B6803F00C03002B74
:101290000BD0494B5B6803F00C03082B1CD1464B69
:1012A0005B6803F48033002B16D1434B1B6803F0BB
:1012B0000203002B05D07B681B69012B01D00123A1
:1012C000BAE13D4B1B6823F0F8027B685B69DB00E9
:1012D000394913430B603AE07B681B69002B20D02F
:1012E000364B01221A60FFF731FC386108E0FFF746
:1012F0002DFC02463B69D31A022B01D903239BE143
:101300002D4B1B6803F00203002BF0D02A4B1B6807
:1013100023F0F8027B685B69DB00274913430B600D
:1013200015E0264B00221A60FFF710FC386108E038
:10133000FFF70CFC02463B69D31A022B01D90323A9
:101340007AE11D4B1B6803F00203002BF0D17B6890
:101350001B6803F00803002B3AD07B689B69002BC5
:1013600019D0174B01221A60FFF7F0FB386108E033
:10137000FFF7ECFB02463B69D31A022B01D903238A
:101380005AE10D4B5B6A03F00203002BF0D0012001
:1013900000F0DAFA1CE00A4B00221A60FFF7D6FBD5
:1013A00038610FE0FFF7D2FB02463B69D31A022BEC
:1013B00008D9032340E100BF001002400000424270
:1013C000800442429E4B5B6A03F00203002BE9D18A
:1013D0007B681B6803F00403002B00F0A680002349
:1013E000FB75974BDB6903F08053002B0DD1944BB9
:1013F000DB69934A43F08053D361914BDB6903F07F
:101400008053BB60BB680123FB758E4B1B6803F4E4
:101410008073002B18D18B4B1B688A4A43F480736E
:101420001360FFF793FB386108E0FFF78FFB02467C
:101430003B69D31A642B01D90323FDE0814B1B6860
:1014400003F48073002BF0D07B68DB68012B06D19E
:101450007B4B1B6A7A4A43F0010313622DE07B68E1
:10146000DB68002B0CD1764B1B6A754A23F0010315
:101470001362734B1B6A724A23F0040313621CE06D
:101480007B68DB68052B0CD16D4B1B6A6C4A43F003
:10149000040313626A4B1B6A694A43F00103136237
:1014A0000BE0674B1B6A664A23F001031362644B2F
:1014B0001B6A634A23F0040313627B68DB68002B1A
:1014C00015D0FFF743FB38610AE0FFF73FFB024608
:1014D0003B69D31A41F28832934201D90323ABE02E
:1014E000574B1B6A03F00203002BEED014E0FFF70A
:1014F0002DFB38610AE0FFF729FB02463B69D31A4E
:1015000041F28832934201D9032395E04C4B1B6A88
:1015100003F00203002BEED1FB7D012B05D1484BDC
:10152000DB69474A23F08053D3617B68DB69002B7A
:1015300000F08180424B5B6803F00C03082B61D004
:101540007B68DB69022B46D13F4B00221A60FFF714
:10155000FDFA386108E0FFF7F9FA02463B69D31A51
:10156000022B01D9032367E0354B1B6803F000739E
:10157000002BF0D17B681B6AB3F5803F08D1304B5C
:101580005B6823F400327B689B682D4913434B60F2
:101590002B4B5B6823F474127B68196A7B685B6A67
:1015A0000B43274913434B60274B01221A60FFF777
:1015B000CDFA386108E0FFF7C9FA02463B69D31A51
:1015C000022B01D9032337E01D4B1B6803F0007386
:1015D000002BF0D02FE01C4B00221A60FFF7B6FA68
:1015E000386108E0FFF7B2FA02463B69D31A022BD2
:1015F00001D9032320E0124B1B6803F00073002B7A
:10160000F0D118E07B68DB69012B01D1012313E0E5
:101610000B4B5B68FB60FB6803F480327B681B6AE2
:101620009A4206D1FB6803F470127B685B6A9A42A7
:1016300001D0012300E0002318461837BD4680BDC5
:1016400000100240007000406000424280B584B04B
:1016500000AF786039607B68002B01D10123D0E0B6
:101660006A4B1B6803F007033A689A4210D9674B2C
:101670001B6823F0070265493B6813430B60634B0B
:101680001B6803F007033A689A4201D00123B8E0CF
:101690007B681B6803F00203002B20D07B681B686B
:1016A00003F00403002B05D0594B5B68584A43F400
:1016B000E06353607B681B6803F00803002B05D0D0
:1016C000534B5B68524A43F460535360504B5B6822
:1016D00023F0F0027B689B684D4913434B607B68A5
:1016E0001B6803F00103002B40D07B685B68012B73
:1016F00007D1474B1B6803F40033002B15D101239E
:101700007FE07B685B68022B07D1414B1B6803F0CD
:101710000073002B09D1012373E03D4B1B6803F0DC
:101720000203002B01D101236BE0394B5B6823F0EE
:1017300003027B685B68364913434B60FFF706FA88
:10174000F8600AE0FFF702FA0246FB68D31A41F29A
:101750008832934201D9032353E02D4B5B6803F099
:101760000C027B685B689B009A42EBD1274B1B689D
:1017700003F007033A689A4210D2244B1B6823F007
:10178000070222493B6813430B60204B1B6803F0A0
:1017900007033A689A4201D0012332E07B681B6854
:1017A00003F00403002B08D0194B5B6823F4E062BC
:1017B0007B68DB68164913434B607B681B6803F04A
:1017C0000803002B09D0124B5B6823F460527B683E
:1017D0001B69DB000E4913434B6000F021F8014602
:1017E0000B4B5B681B0903F00F030A4AD35C21FA19
:1017F00003F3094A1360094B1B681846FFF764F9A5
:10180000002318461037BD4680BD00BF00200240AF
:10181000001002405C7000080C0000200000002056
:1018200090B48AB000AF2A4B3C1D0FCB84E80F0068
:10183000284B1B883B800023FB610023BB610023F6
:101840007B6200237B6100233B62234B5B68FB616F
:10185000FB6903F00C03042B02D0082B03D02DE00E
:101860001E4B3B622DE0FB699B0C03F00F0307F15D
:101870002802134413F8243C7B61FB6903F4803392
:10188000002B13D0144B5B685B0C03F0010307F1D2
:101890002802134413F8283CBB617B690F4A02FB02
:1018A00003F2BB69B2FBF3F37B6204E07B690C4A91
:1018B00002FB03F37B627B6A3B6202E0074B3B6205
:1018C00000BF3B6A18462837BD4690BC704700BF32
:1018D000C86F0008D86F00080010024000127A009C
:1018E00000093D0080B400AF024B1B681846BD469E
:1018F00080BC70470C00002080B500AFFFF7F2FFFE
:101900000146054B5B681B0A03F00703034AD35CDF
:1019100021FA03F3184680BD001002406C700008E5
:1019200080B500AFFFF7DEFF0146054B5B68DB0AC1
:1019300003F00703034AD35C21FA03F3184680BD82
:10194000001002406C70000880B485B000AF786071
:101950000A4B1B680A4AA2FB03235B0A7A6802FB54
:1019600003F3FB6000BFFB685A1EFA60002BF9D13D
:1019700000BF1437BD4680BC704700BF0C0000207C
:10198000D34D621080B582B000AF78607B68002BC9
:1019900001D101233FE07B6893F83930DBB2002BA3
:1019A00006D17B68002283F83820786803F012FAA9
:1019B0007B68242283F839207B681B68DA687B689F
:1019C0001B6822F40052DA60786800F0E7FB7B685D
:1019D0001B681A697B681B6822F490421A617B6855
:1019E0001B685A697B681B6822F02A025A617B686F
:1019F0001B68DA687B681B6842F40052DA607B6817
:101A00000022DA637B68202283F839207B68202259
:101A100083F83A20002318460837BD4680BD80B5BC
:101A200088B002AFF860B9603B601346FB800023CA
:101A30007B61FB6893F83930DBB2202B40F0838068
:101A4000BB68002B02D0FB88002B01D101237BE077
:101A5000FB6893F83830012B01D1022374E0FB6856
:101A6000012283F83820FB680022DA63FB68212218
:101A700083F83920FFF76AF87861FB68FA889A845E
:101A8000FB68FA88DA8442E0FB68DB8C9BB2013B9E
:101A90009AB2FB68DA84FB689B68B3F5805F22D159
:101AA0003B6800937B6900228021F86800F00DFA02
:101AB0000346002B01D0032346E0BB683B613B6932
:101AC0001B881A46FB681B68C2F308025A60FB6851
:101AD0001B69002B03D1BB680233BB6017E0BB68F6
:101AE0000133BB6013E03B6800937B6900228021D7
:101AF000F86800F0EAF90346002B01D0032323E045
:101B0000BB685A1CBA601A78FB681B685A60FB688D
:101B1000DB8C9BB2002BB7D13B6800937B69002222
:101B20004021F86800F0D1F90346002B01D00323CF
:101B30000AE0FB68202283F83920FB68002283F842
:101B40003820002300E0022318461837BD4680BD28
:101B500080B588B002AFF860B9603B601346FB8087
:101B600000237B61FB6893F83A30DBB2202B40F016
:101B70009080BB68002B02D0FB88002B01D1012391
:101B800088E0FB6893F83830012B01D1022381E013
:101B9000FB68012283F83820FB680022DA63FB68C7
:101BA000222283F83A20FEF7D1FF7861FB68FA8899
:101BB0009A85FB68FA88DA855CE0FB68DB8D9BB26E
:101BC000013B9AB2FB68DA85FB689B68B3F5805FDE
:101BD0002BD13B6800937B6900222021F86800F03C
:101BE00074F90346002B01D0032353E0BB683B612B
:101BF000FB681B69002B0CD1FB681B685B689BB200
:101C0000C3F308039AB23B691A80BB680233BB6016
:101C100030E0FB681B685B689BB2DBB29AB23B6941
:101C20001A80BB680133BB6024E03B6800937B698A
:101C300000222021F86800F048F90346002B01D06B
:101C4000032327E0FB681B69002B08D1FB681B6896
:101C50005968BB685A1CBA60CAB21A700AE0FB68BD
:101C60001B685B68DAB2BB68591CB96002F07F027E
:101C7000D2B21A70FB68DB8D9BB2002B9DD1FB6842
:101C8000202283F83A20FB68002283F838200023C2
:101C900000E0022318461837BD4680BD80B588B0E5
:101CA00000AF78607B681B681B68FB617B681B6802
:101CB000DB68BB617B681B685B697B6100233B6100
:101CC0000023FB60FB6903F00F033B613B69002BC2
:101CD0000DD1FB6903F02003002B08D0BB6903F092
:101CE0002003002B03D0786800F0D7F9CCE03B69E3
:101CF000002B00F0AB807B6903F00103002B05D1C2
:101D0000BB6903F49073002B00F0A080FB6903F023
:101D10000103002B0AD0BB6903F48073002B05D0AC
:101D20007B68DB6B43F001027B68DA63FB6903F0DD
:101D30000403002B0AD07B6903F00103002B05D0BC
:101D40007B68DB6B43F002027B68DA63FB6903F0BC
:101D50000203002B0AD07B6903F00103002B05D09E
:101D60007B68DB6B43F004027B68DA63FB6903F09A
:101D70000803002B0AD07B6903F00103002B05D078
:101D80007B68DB6B43F008027B68DA637B68DB6BA4
:101D9000002B78D0FB6903F02003002B07D0BB6930
:101DA00003F02003002B02D0786800F076F97B68FE
:101DB0001B685B6903F04003002B14BF0123002361
:101DC000DBB2FB607B68DB6B03F00803002B02D106
:101DD000FB68002B31D0786800F0C1F87B681B6885
:101DE0005B6903F04003002B23D07B681B685A69B2
:101DF0007B681B6822F040025A617B685B6B002B9A
:101E000013D07B685B6B224A5A637B685B6B184616
:101E1000FEF7B4FF0346002B16D07B685B6B5B6B51
:101E20007A68526B104698470EE0786800F044F8E4
:101E30000AE0786800F040F806E0786800F03CF8C6
:101E40007B680022DA631EE000BF1CE0FB6903F040
:101E50008003002B08D0BB6903F08003002B03D064
:101E6000786800F0ADF80FE0FB6903F04003002B49
:101E70000AD0BB6903F04003002B05D0786800F05E
:101E8000F4F800BF00E000BF2037BD4680BD00BFB2
:101E9000991F000880B483B000AF786000BF0C3792
:101EA000BD4680BC704780B483B000AF786000BF8F
:101EB0000C37BD4680BC704780B483B000AF7860FB
:101EC00000BF0C37BD4680BC704780B584B000AF02
:101ED000F860B9603B601346FB712CE0BB69B3F15D
:101EE000FF3F28D0BB69002B07D0FEF72FFE02462C
:101EF0003B68D31ABA699A421DD2FB681B68DA683C
:101F0000FB681B6822F4D072DA60FB681B685A69B0
:101F1000FB681B6822F001025A61FB68202283F8EB
:101F20003920FB68202283F83A20FB68002283F8DE
:101F3000382003230FE0FB681B681A68BB68134056
:101F4000BA689A420CBF01230023DBB21A46FB7920
:101F50009A42C3D0002318461037BD4680BD80B4D6
:101F600083B000AF78607B681B68DA687B681B68A9
:101F700022F49072DA607B681B685A697B681B6880
:101F800022F001025A617B68202283F83A2000BFC8
:101F90000C37BD4680BC704780B584B000AF786018
:101FA0007B685B6AFB60FB680022DA85FB680022C5
:101FB000DA84F868FFF780FF00BF1037BD4680BDA8
:101FC00080B485B000AF78607B6893F83930DBB2BD
:101FD000212B44D17B689B68B3F5805F1AD17B6865
:101FE0001B6AFB60FB681B881A467B681B68C2F390
:101FF00008025A607B681B69002B05D17B681B6A4D
:102000009A1C7B681A620EE07B681B6A5A1C7B680C
:102010001A6208E07B681B6A591C7A6811621A7898
:102020007B681B685A607B68DB8C9BB2013B9BB270
:102030007A681946D184002B0FD17B681B68DA6857
:102040007B681B6822F08002DA607B681B68DA68B4
:102050007B681B6842F04002DA60002300E0022344
:1020600018461437BD4680BC704780B582B000AFBB
:1020700078607B681B68DA687B681B6822F0400226
:10208000DA607B68202283F839207868FFF702FF46
:10209000002318460837BD4680BD80B584B000AF28
:1020A00078607B6893F83A30DBB2222B71D17B6881
:1020B0009B68B3F5805F23D17B689B6AFB607B687C
:1020C0001B69002B0ED17B681B685B689BB2C3F356
:1020D00008039AB2FB681A807B689B6A9A1C7B682B
:1020E0009A6229E07B681B685B689BB2DBB29AB29C
:1020F000FB681A807B689B6A5A1C7B689A621BE0AB
:102100007B681B69002B0AD17B681B6858687B6859
:102110009B6A591C7A689162C2B21A700CE07B68A3
:102120001B685B68DAB27B689B6A581C79688862B6
:1021300002F07F02D2B21A707B68DB8D9BB2013B4A
:102140009BB27A681946D185002B20D17B681B6829
:10215000DA687B681B6822F02002DA607B681B6803
:10216000DA687B681B6822F48072DA607B681B681F
:102170005A697B681B6822F001025A617B68202241
:1021800083F83A207868FFF78EFE002302E00023F0
:1021900000E0022318461037BD4680BD80B584B0EC
:1021A00000AF78607B681B681B6923F440517B6833
:1021B000DA687B681B680A431A617B689A687B68E7
:1021C0001B691A437B685B691343FB607B681B6870
:1021D000DB6823F4B05323F00C037A681268F968C3
:1021E0000B43D3607B681B685B6923F440717B6899
:1021F0009A697B681B680A435A617B681B68524A6C
:1022000093424ED1FFF78CFBB860BA6813469B002F
:1022100013449A001A447B685B689B00B2FBF3F39B
:102220004A4AA2FB03235B091901BA6813469B00C3
:1022300013449A001A447B685B689B00B2FBF3F27C
:10224000424BA3FB02035B09642000FB03F3D31A98
:102250001B0132333D4AA2FB03235B0903F0F00369
:102260001944BA6813469B0013449A001A447B68C9
:102270005B689B00B2FBF3F2344BA3FB02035B09E8
:10228000642000FB03F3D31A1B0132332F4AA2FB55
:1022900003235B0903F00F027B681B680A449A6002
:1022A0004DE0FFF729FBB860BA6813469B00134462
:1022B0009A001A447B685B689B00B2FBF3F3234AE5
:1022C000A2FB03235B091901BA6813469B00134460
:1022D0009A001A447B685B689B00B2FBF3F21B4BCD
:1022E000A3FB02035B09642000FB03F3D31A1B0169
:1022F0003233164AA2FB03235B0903F0F0031944AF
:10230000BA6813469B0013449A001A447B685B68C2
:102310009B00B2FBF3F20D4BA3FB02035B096420AD
:1023200000FB03F3D31A1B013233084AA2FB032339
:102330005B0903F00F027B681B680A449A6000BFC8
:102340001037BD4680BD00BF003801401F85EB51EE
:1023500080B485B000AF0346FB800023FB60B7F973
:102360000630842B05D0B7F90620FB6813440333ED
:10237000FB60FB6818461437BD4680BC704780B5CB
:1023800000AF00F0ADFF0023184680BDF0B589B066
:1023900004AF786039607B685B69002B20D07B6874
:1023A0009B69002B1CD07B685C687B681D687B6820
:1023B0001E697B68B3F908301846FFF7C9FF01466C
:1023C0007B685B697A6892690292019300913B682D
:1023D00032462946204600F0BDFD0346FB601CE066
:1023E0007B685C687B681D687B681B699EB27B6844
:1023F000B3F908301846FFF7ABFF024607F10C03AC
:10240000019300923B6832462946204600F0FBFDCE
:102410000346012B01D0002300E0FB681846143767
:10242000BD46F0BD80B584B000AF78607B68FB60CE
:10243000FB68002B01D0FB6800E00123184600F088
:102440001BFF002318461037BD4680BD80B483B003
:1024500000AF78607B6803F108027B685A607B6894
:102460004FF0FF329A607B6803F108027B68DA6004
:102470007B6803F108027B681A617B6800221A609E
:1024800000BF0C37BD4680BC704780B483B000AF3E
:1024900078607B6800221A6100BF0C37BD4680BCA3
:1024A000704780B485B000AF786039607B685B6846
:1024B000FB603B68FA685A60FB689A683B689A6000
:1024C000FB689B683A685A60FB683A689A603B68A8
:1024D0007A681A617B681B685A1C7B681A6000BFA7
:1024E0001437BD4680BC704780B485B000AF7860BB
:1024F00039603B681B68BB60BB68B3F1FF3F03D129
:102500007B681B69FB600CE07B680833FB6002E0C2
:10251000FB685B68FB60FB685B681B68BA689A4293
:10252000F6D2FB685A683B685A603B685B683A6859
:102530009A603B68FA689A60FB683A685A603B6840
:102540007A681A617B681B685A1C7B681A6000BF36
:102550001437BD4680BC704780B485B000AF78604A
:102560007B681B69FB607B685B687A6892689A602D
:102570007B689B687A6852685A60FB685B687A6817
:102580009A4203D17B689A68FB685A607B68002294
:102590001A61FB681B685A1EFB681A60FB681B689F
:1025A00018461437BD4680BC7047000080B584B023
:1025B00000AF786039607B68FB60FB68002B09D155
:1025C0004FF0500383F31188BFF36F8FBFF34F8F2A
:1025D000BB60FEE701F0A0FFFB681A68FB68DB6BDD
:1025E000F968096C01FB03F31A44FB685A60FB6845
:1025F00000229A63FB681A68FB689A60FB681A6895
:10260000FB68DB6B013BF968096C01FB03F31A44BF
:10261000FB68DA60FB68FF2283F84420FB68FF2236
:1026200083F845203B68002B14D1FB681B69002B05
:102630001AD0FB681033184601F0D2F80346002B7D
:1026400012D00D4B4FF080521A60BFF34F8FBFF383
:102650006F8F09E0FB6810331846FFF7F7FEFB6841
:1026600024331846FFF7F2FE01F084FF01231846D9
:102670001037BD4680BD00BF04ED00E080B58EB0D0
:1026800002AFF860B9607A603B60FB68002B09D14B
:102690004FF0500383F31188BFF36F8FBFF34F8F59
:1026A000BB62FEE73B68002B09D14FF0500383F378
:1026B0001188BFF36F8FBFF34F8F7B62FEE77B689C
:1026C000002B02D0BB68002B01D0012300E00023C7
:1026D000002B09D14FF0500383F31188BFF36F8FA4
:1026E000BFF34F8F3B62FEE77B68002B02D1BB68D4
:1026F000002B01D1012300E00023002B09D14FF072
:10270000500383F31188BFF36F8FBFF34F8FFB61CB
:10271000FEE750237B617B69502B09D04FF05003BB
:1027200083F31188BFF36F8FBFF34F8FBB61FEE759
:102730003B68FB62FB6A002B0DD0FB6A012283F829
:10274000462097F83820FB6A009313467A68B968E8
:10275000F86800F005F8FB6A18463037BD4680BDC2
:1027600080B584B000AFF860B9607A60FB70BB6878
:10277000002B03D1BB69BA691A6002E0BB697A68B1
:102780001A60BB69FA68DA63BB69BA681A64012126
:10279000B869FFF70BFFBB69FA7883F84C2000BFDC
:1027A0001037BD4680BD000080B58EB000AFF86028
:1027B000B9607A603B6000237B63FB683B633B6BE3
:1027C000002B09D14FF0500383F31188BFF36F8FB3
:1027D000BFF34F8FBB62FEE7BB68002B03D13B6B9F
:1027E0001B6C002B01D1012300E00023002B09D139
:1027F0004FF0500383F31188BFF36F8FBFF34F8FF8
:102800007B62FEE73B68022B03D13B6BDB6B012B4A
:1028100001D1012300E00023002B09D14FF0500328
:1028200083F31188BFF36F8FBFF34F8F3B62FEE7D7
:1028300001F090F90346002B02D17B68002B01D1F7
:10284000012300E00023002B09D14FF0500383F354
:102850001188BFF36F8FBFF34F8FFB61FEE701F06D
:102860005BFE3B6B9A6B3B6BDB6B9A4202D33B6824
:10287000022B29D13A68B968386B00F0FFF9F86289
:102880003B6B5B6A002B10D03B6B2433184600F087
:10289000A7FF0346002B13D03F4B4FF080521A6026
:1028A000BFF34F8FBFF36F8F0AE0FB6A002B07D097
:1028B000394B4FF080521A60BFF34F8FBFF36F8FC9
:1028C00001F058FE012363E07B68002B03D101F087
:1028D00051FE00235CE07B6B002B06D107F1140353
:1028E000184600F0DFFF01237B6301F043FE00F098
:1028F0005BFD01F011FE3B6B93F844305BB2B3F12A
:10290000FF3F03D13B6B002283F844203B6B93F8DD
:1029100045305BB2B3F1FF3F03D13B6B002283F83C
:10292000452001F027FE3A1D07F114031146184611
:1029300000F0CEFF0346002B24D1386B00F096FA4E
:102940000346002B18D03B6B10337A6811461846AB
:1029500000F0F8FE386B00F021FA00F033FD03467A
:10296000002B7FF47CAF0C4B4FF080521A60BFF30A
:102970004F8FBFF36F8F72E7386B00F00FFA00F0E4
:1029800021FD6CE7386B00F009FA00F01BFD002315
:1029900018463837BD4680BD04ED00E080B58EB0E6
:1029A00000AFF860B9607A603B60FB683B633B6BEB
:1029B000002B09D14FF0500383F31188BFF36F8FC1
:1029C000BFF34F8F7B62FEE7BB68002B03D13B6BED
:1029D0001B6C002B01D1012300E00023002B09D147
:1029E0004FF0500383F31188BFF36F8FBFF34F8F06
:1029F0003B62FEE73B68022B03D13B6BDB6B012B99
:102A000001D1012300E00023002B09D14FF0500336
:102A100083F31188BFF36F8FBFF34F8FFB61FEE726
:102A200001F034FEEFF311824FF0500383F311886D
:102A3000BFF36F8FBFF34F8FBA617B61BB69FB62DE
:102A40003B6B9A6B3B6BDB6B9A4202D33B68022B6E
:102A50002CD13B6B93F8453087F82B303A68B96836
:102A6000386B00F00BF997F92B30B3F1FF3F12D11F
:102A70003B6B5B6A002B16D03B6B2433184600F08F
:102A8000AFFE0346002B0ED07B68002B0BD07B687B
:102A900001221A6007E097F82B300133DBB25AB2FB
:102AA0003B6B83F8452001237B6301E000237B63BC
:102AB000FB6A3B613B6983F311887B6B18463837AF
:102AC000BD4680BD80B58CB000AFF860B9607A605B
:102AD0000023FB62FB68BB62BB6A002B09D14FF08D
:102AE000500383F31188BFF36F8FBFF34F8F3B62A7
:102AF000FEE7BB68002B03D1BB6A1B6C002B01D126
:102B0000012300E00023002B09D14FF0500383F391
:102B10001188BFF36F8FBFF34F8FFB61FEE701F0AA
:102B200019F80346002B02D17B68002B01D1012349
:102B300000E00023002B09D14FF0500383F31188EC
:102B4000BFF36F8FBFF34F8FBB61FEE701F0E4FC73
:102B5000BB6A9B6B7B627B6A002B1FD0B968B86A2B
:102B600000F0F6F87B6A5A1EBB6A9A63BB6A1B695F
:102B7000002B0FD0BB6A1033184600F031FE03461D
:102B8000002B07D03C4B4FF080521A60BFF34F8FA1
:102B9000BFF36F8F01F0EEFC012369E07B68002B2F
:102BA00003D101F0E7FC002362E0FB6A002B06D1B1
:102BB00007F11003184600F075FE0123FB6201F0D7
:102BC000D9FC00F0F1FB01F0A7FCBB6A93F844309C
:102BD0005BB2B3F1FF3F03D1BB6A002283F844200C
:102BE000BB6A93F845305BB2B3F1FF3F03D1BB6AD8
:102BF000002283F8452001F0BDFC3A1D07F11003C7
:102C00001146184600F064FE0346002B23D1B86A33
:102C100000F016F90346002B17D0BB6A24337A68FC
:102C20001146184600F08EFDB86A00F0B7F800F0C3
:102C3000C9FB0346002B89D10F4B4FF080521A601D
:102C4000BFF34F8FBFF36F8F80E7B86A00F0A6F82D
:102C500000F0B8FB7AE7B86A00F0A0F800F0B2FB29
:102C6000B86A00F0EDF80346002B3FF46FAF002385
:102C700018463037BD4680BD04ED00E080B586B013
:102C800000AFF860B9607A6000237B61FB689B6BE2
:102C90003B61FB681B6C002B0DD1FB681B68002B94
:102CA0004DD1FB685B68184600F072FF7861FB68E5
:102CB00000225A6043E07B68002B19D1FB689868BA
:102CC000FB681B6C1A46B96802F0BCFBFB689A688B
:102CD000FB681B6C1A44FB689A60FB689A68FB6887
:102CE0005B689A422BD3FB681A68FB689A6026E0FF
:102CF000FB68D868FB681B6C1A46B96802F0A2FB37
:102D0000FB68DA68FB681B6C5B421A44FB68DA609C
:102D1000FB68DA68FB681B689A4207D2FB685A684E
:102D2000FB681B6C5B421A44FB68DA607B68022B11
:102D300005D13B69002B02D03B69013B3B613B69FC
:102D40005A1CFB689A637B6918461837BD4680BDDC
:102D500080B582B000AF786039607B681B6C002B57
:102D600018D07B68DA687B681B6C1A447B68DA6071
:102D70007B68DA687B685B689A4203D37B681A6871
:102D80007B68DA607B68D9687B681B6C1A46386898
:102D900002F058FB00BF0837BD4680BD80B584B047
:102DA00000AF786001F0B8FB7B6893F84530FB73A7
:102DB00011E07B685B6A002B12D07B6824331846D5
:102DC00000F00EFD0346002B01D000F0E1FDFB7B7F
:102DD000013BDBB2FB7397F90F30002BE9DC00E01D
:102DE00000BF7B68FF2283F8452001F0C3FB01F0A0
:102DF00093FB7B6893F84430BB7311E07B681B69DD
:102E0000002B12D07B681033184600F0E9FC034613
:102E1000002B01D000F0BCFDBB7B013BDBB2BB73E0
:102E200097F90E30002BE9DC00E000BF7B68FF2241
:102E300083F8442001F09EFB00BF1037BD4680BDE3
:102E400080B584B000AF786001F066FB7B689B6B57
:102E5000002B02D10123FB6001E00023FB6001F0A5
:102E600089FBFB6818461037BD4680BD80B584B02D
:102E700000AF786001F050FB7B689A6B7B68DB6B7E
:102E80009A4202D10123FB6001E00023FB6001F0C4
:102E900071FBFB6818461037BD4680BD80B485B015
:102EA00000AF786039600023FB6014E00E4AFB68D5
:102EB00052F83330002B0BD10B49FB683A6841F8CC
:102EC0003320094AFB68DB0013447A685A6005E046
:102ED000FB680133FB60FB68072BE7D900BF1437A1
:102EE000BD4680BC704700BF642B002080B586B013
:102EF00000AFF860B9607A60FB687B6101F00CFBA1
:102F00007B6993F844305BB2B3F1FF3F03D17B6937
:102F1000002283F844207B6993F845305BB2B3F11B
:102F2000FF3F03D17B69002283F8452001F022FB9B
:102F30007B699B6B002B06D17B6924337A68B96867
:102F4000184600F023FC7869FFF728FF00BF183708
:102F5000BD4680BD80B58EB004AFF860B9607A60C0
:102F60003B607B6B002B09D14FF0500383F311883A
:102F7000BFF36F8FBFF34F8F3B62FEE7BB6B002B3E
:102F800009D14FF0500383F31188BFF36F8FBFF364
:102F90004F8FFB61FEE75C233B613B695C2B09D0F3
:102FA0004FF0500383F31188BFF36F8FBFF34F8F40
:102FB000BB61FEE7BB6B002B1ED07B6B002B1BD0D5
:102FC000BB6B7B627B6A7A6B1A637B6A022283F833
:102FD0005920002303937B6A029307F114030193A2
:102FE0003B6B00933B687A68B968F86800F050F86A
:102FF000786A00F0D3F801E000237B617B69184612
:103000002837BD4680BD80B58CB004AFF860B9608C
:103010003B601346FB80FB889B00184601F072FB67
:1030200078617B69002B0ED05C2001F06BFBF861AE
:10303000FB69002B03D0FB697A691A6305E07869A4
:1030400001F022FC01E00023FB61FB69002B17D09B
:10305000FB69002283F85920FA8800230393FB6957
:103060000293FB6A0193BB6A00933B68B968F868F6
:1030700000F00EF8F86900F091F80123BB6102E05E
:103080004FF0FF33BB61BB6918462037BD4680BD9A
:1030900080B588B000AFF860B9607A603B603B6B88
:1030A000186B7B689B001A46A52102F0D6F93B6B92
:1030B0001A6B7B6803F18043013B9B001344BB61A7
:1030C000BB6923F00703BB61BB6903F00703002B57
:1030D00009D04FF0500383F31188BFF36F8FBFF314
:1030E0004F8F7B61FEE70023FB6112E0BA68FB694A
:1030F000134419783A6BFB69134434330A461A7047
:10310000BA68FB6913441B78002B06D0FB690133B6
:10311000FB61FB690F2BE9D900E000BF3B6B00228C
:1031200083F84320BB6A062B01D90623BB623B6BA5
:10313000BA6ADA623B6BBA6ADA643B6B00221A65E0
:103140003B6B04331846FFF7A0F93B6B1833184666
:10315000FFF79BF93B6B3A6B1A61BB6AC3F107023D
:103160003B6B9A613B6B3A6B5A623B6B00225A6530
:103170003B6B002283F858203A68F968B86901F07F
:10318000E1F802463B6B1A60FB6A002B02D0FB6A37
:103190003A6B1A6000BF2037BD4680BD80B582B053
:1031A00000AF786001F0B8F92C4B1B6801332B4A53
:1031B00013602B4B1B68002B09D1294A7B681360D5
:1031C000264B1B68012B10D100F006FC0DE0254BAF
:1031D0001B68002B09D1224B1B68DA6A7B68DB6A0B
:1031E0009A4202D81E4A7B6813601F4B1B6801334A
:1031F0001D4A13601C4B1A687B685A647B68DB6A43
:1032000001229A40194B1B681343184A13607B68CC
:10321000DA6A13469B0013449B00154A1A447B68E4
:10322000043319461046FFF73CF901F0A3F90D4BA2
:103230001B68002B0ED00A4B1B68DA6A7B68DB6ABE
:103240009A4207D20B4B4FF080521A60BFF34F8F58
:10325000BFF36F8F00BF0837BD4680BD4403002019
:103260004402002050030020600300204C03002093
:103270004802002004ED00E080B584B000AF786023
:103280000023FB607B68002B16D0134B1B68002BC0
:1032900009D04FF0500383F31188BFF36F8FBFF352
:1032A0004F8FBB60FEE700F07FF80021786800F0E8
:1032B000F3FC00F087F8F860FB68002B07D1074BA0
:1032C0004FF080521A60BFF34F8FBFF36F8F00BF74
:1032D0001037BD4680BD00BF6C03002004ED00E048
:1032E00080B58AB004AF0023BB6000237B603A4600
:1032F000391D07F10803184601F0D8FB39687B68CF
:10330000BA68029201930023009300230A462049E1
:103310002048FFF71FFE02461F4B1A601E4B1B681A
:10332000002B02D001237B6101E000237B617B69DC
:10333000012B02D100F016FD78617B69012B15D1BC
:103340004FF0500383F31188BFF36F8FBFF34F8F9C
:103350003B61124B4FF0FF321A60114B01221A6091
:10336000104B00221A6001F067F80DE07B69B3F1A1
:10337000FF3F09D14FF0500383F31188BFF36F8FE4
:10338000BFF34F8FFB60FEE700BF1837BD4680BD1F
:10339000DC6F0008A93900086803002064030020DE
:1033A000500300204803002080B400AF044B1B688A
:1033B0000133034A136000BFBD4680BC704700BFA5
:1033C0006C03002080B584B000AF0023FB600023B5
:1033D000BB60414B1B68002B09D14FF0500383F3B6
:1033E0001188BFF36F8FBFF34F8F3B60FEE701F093
:1033F00093F8394B1B68013B374A1360364B1B6807
:10340000002B61D1354B1B68002B5DD02EE0344B77
:10341000DB68DB68FB60FB6818331846FFF79CF835
:10342000FB6804331846FFF797F8FB68DB6A012254
:103430009A402C4B1B6813432A4A1360FB68DA6AD4
:1034400013469B0013449B00274A1A44FB6804332D
:1034500019461046FFF725F8FB68DA6A234B1B680C
:10346000DB6A9A4202D3224B01221A601C4B1B6872
:10347000002BCCD1FB68002B01D000F047FB1D4B8B
:103480001B687B607B68002B10D000F045F803467A
:10349000002B02D0164B01221A607B68013B7B6037
:1034A0007B68002BF1D1134B00221A60104B1B6874
:1034B000002B09D00123BB600F4B4FF080521A60E4
:1034C000BFF34F8FBFF36F8F01F054F8BB681846FE
:1034D0001037BD4680BD00BF6C03002044030020B0
:1034E000040300204C030020480200204402002076
:1034F000580300205403002004ED00E080B483B0A2
:1035000000AF044B1B687B607B6818460C37BD46D8
:1035100080BC70474803002080B586B000AF002310
:103520007B61504B1B68002B40F08C804E4B1B681E
:1035300001333B614C4A3B6913603B69002B1FD14F
:103540004A4B1B681B68002B09D04FF0500383F3D4
:103550001188BFF36F8FBFF34F8F3B60FEE7434B84
:103560001B68FB60424B1B68404A1360404AFB6883
:103570001360404B1B6801333E4A136000F0C6FAEB
:103580003D4B1B683A699A424DD3384B1B681B6808
:10359000002B01D1012300E00023002B04D0364B87
:1035A0004FF0FF321A603EE0304B1B68DB68DB688F
:1035B000BB60BB685B687B603A697B689A4203D2F8
:1035C0002D4A7B6813602EE0BB6804331846FEF773
:1035D000C3FFBB689B6A002B04D0BB681833184636
:1035E000FEF7BAFFBB68DB6A01229A40234B1B68D7
:1035F0001343224A1360BB68DA6A13469B001344E4
:103600009B001F4A1A44BB68043319461046FEF754
:1036100048FFBB68DA6A1B4B1B68DB6A9A42B4D36B
:1036200001237B61B1E7174B1B68DA6A1449134623
:103630009B0013449B000B441B68012B07D90123FB
:103640007B6104E0104B1B6801330F4A13600F4B82
:103650001B68002B01D001237B617B69184618375A
:10366000BD4680BD6C03002048030020FC02002002
:10367000000300205C030020640300204C030020B2
:103680004802002044020020540300205803002078
:1036900080B487B000AF264B1B68002B03D0254BAE
:1036A00001221A603EE0234B00221A60224B1B6865
:1036B000FB60FB68B3FA83F3FB72FB7AC3F11F0371
:1036C0007B611E497A6913469B0013449B000B449F
:1036D0001B68002B09D14FF0500383F31188BFF30F
:1036E0006F8FBFF34F8F7B60FEE77A6913469B00B5
:1036F00013449B00114A13443B613B695B685A6861
:103700003B695A603B695A683B6908339A4204D165
:103710003B695B685A683B695A603B695B68DB6878
:10372000074A136000BF1C37BD4680BC704700BF0E
:103730006C030020580300204C03002048020020A6
:103740004402002080B584B000AF786039607B68A7
:10375000002B09D14FF0500383F31188BFF36F8F13
:10376000BFF34F8FFB60FEE7074B1B68183319460A
:103770007868FEF7B9FE0121386800F08DFA00BFC5
:103780001037BD4680BD00BF4402002080B586B022
:1037900000AFF860B9607A60FB68002B09D14FF088
:1037A000500383F31188BFF36F8FBFF34F8F7B619B
:1037B000FEE70A4B1B6818331946F868FEF771FEDE
:1037C0007B68002B02D04FF0FF33BB607968B8688C
:1037D00000F062FA00BF1837BD4680BD44020020E9
:1037E00080B586B000AF78607B68DB68DB683B61E2
:1037F0003B69002B09D14FF0500383F31188BFF3CD
:103800006F8FBFF34F8FFB60FEE73B69183318469D
:10381000FEF7A2FE1D4B1B68002B1CD13B69043335
:103820001846FEF799FE3B69DB6A01229A40184B65
:103830001B681343164A13603B69DA6A13469B0000
:1038400013449B00134A1A443B690433194610463B
:10385000FEF727FE05E03B69183319460E48FEF7D0
:1038600020FE3B69DA6A0D4B1B68DB6A9A4205D978
:1038700001237B610A4B01221A6001E000237B6176
:103880007B6918461837BD4680BD00BF6C03002019
:103890004C030020480200200403002044020020C2
:1038A0005803002080B483B000AF7860064B1A68DC
:1038B0007B681A60054B1A687B685A6000BF0C373A
:1038C000BD4680BC704700BF5C0300204803002059
:1038D00080B588B000AF786039607B68002B09D173
:1038E0004FF0500383F31188BFF36F8FBFF34F8FF7
:1038F0003B61FEE73B68002B09D14FF0500383F397
:103900001188BFF36F8FBFF34F8FFB60FEE700F0AE
:1039100003FE1D4B1B68BB617B685B68BA69D31AE9
:103920007B613B681B68B3F1FF3F02D10023FB6161
:1039300023E07B681A68154B1B689A4207D07B68A6
:103940005B68BA699A4202D30123FB6115E03B68C8
:103950001B687A699A420BD23B681A687B69D21A53
:103960003B681A607868FFF79DFF0023FB6104E065
:103970003B6800221A600123FB6100F0FBFDFB693C
:1039800018462037BD4680BD480300205C03002058
:1039900080B400AF034B01221A6000BFBD4680BC5B
:1039A000704700BF5803002080B582B000AF786038
:1039B00000F052F8064B1B68012BF9D9054B4FF06C
:1039C00080521A60BFF34F8FBFF36F8FF0E700BFD5
:1039D0004802002004ED00E080B582B000AF002373
:1039E0007B600CE07A6813469B0013449B00124AEC
:1039F00013441846FEF72AFD7B6801337B607B6821
:103A0000062BEFD90D48FEF721FD0D48FEF71EFDF0
:103A10000C48FEF71BFD0C48FEF718FD0B48FEF79F
:103A200015FD0B4B054A1A600A4B054A1A6000BF88
:103A30000837BD4680BD00BF48020020D4020020E8
:103A4000E8020020040300201803002030030020B7
:103A5000FC0200200003002080B582B000AF19E016
:103A600000F05AFD0F4BDB68DB687B607B6804333A
:103A70001846FEF771FD0C4B1B68013B0A4A1360A8
:103A80000A4B1B68013B094A136000F073FD78681C
:103A900000F00EF8054B1B68002BE1D100BF083782
:103AA000BD4680BD18030020440300202C030020E5
:103AB00080B584B000AF78607B6893F85930002BF4
:103AC00008D17B681B6B184600F0DEFE786800F0BA
:103AD000DBFE17E07B6893F85930012B03D178683F
:103AE00000F0D2FE0EE07B6893F85930022B09D02B
:103AF0004FF0500383F31188BFF36F8FBFF34F8FE5
:103B0000FB60FEE700BF1037BD4680BD80B483B0C8
:103B100000AF0E4B1B681B68002B01D1012300E096
:103B20000023002B04D00A4B4FF0FF321A6008E04C
:103B3000064B1B68DB68DB687B607B685B68044A5C
:103B4000136000BF0C37BD4680BC7047FC020020EC
:103B50006403002080B483B000AF0B4B1B68002BC4
:103B600002D101237B6008E0084B1B68002B02D1C7
:103B700002237B6001E000237B607B6818460C37E2
:103B8000BD4680BC704700BF500300206C0300207E
:103B900080B586B000AF78607B683B6100237B61B5
:103BA0007B68002B6CD0394B1B683A699A4209D06C
:103BB0004FF0500383F31188BFF36F8FBFF34F8F24
:103BC000FB60FEE73B691B6D002B09D14FF05003F2
:103BD00083F31188BFF36F8FBFF34F8FBB60FEE796
:103BE0003B691B6D5A1E3B691A653B69DA6A3B6982
:103BF000DB6C9A4244D03B691B6D002B40D13B6982
:103C000004331846FEF7A8FC0346002B15D13B6988
:103C1000DA6A1F4913469B0013449B000B441B6840
:103C2000002B0AD13B69DB6A012202FA03F3DA4373
:103C3000184B1B681340174A13603B69DA6C3B69E9
:103C4000DA623B69DB6AC3F107023B699A613B694F
:103C5000DB6A01229A400F4B1B6813430D4A136025
:103C60003B69DA6A13469B0013449B00084A1A44D6
:103C70003B69043319461046FEF713FC01237B61B0
:103C80007B6918461837BD4680BD00BF440200203E
:103C9000480200204C03002080B584B000AF78605B
:103CA0003960294B1B68FB60284B1B68043318469E
:103CB000FEF752FC0346002B0BD1244B1B68DB6A3A
:103CC000012202FA03F3DA43214B1B681340204A16
:103CD00013607B68B3F1FF3F0AD13B68002B07D02C
:103CE0001A4B1B68043319461A48FEF7DAFB26E024
:103CF000FA687B681344BB60144B1B68BA685A604F
:103D0000BA68FB689A4209D2134B1A680F4B1B68BA
:103D1000043319461046FEF7E7FB10E00F4B1A6814
:103D20000A4B1B68043319461046FEF7DDFB0C4BAB
:103D30001B68BA689A4202D2094ABB68136000BF86
:103D40001037BD4680BD00BF48030020440200205C
:103D50004C0300203003002000030020FC02002060
:103D60006403002080B58AB004AF00237B6100F0BB
:103D7000A9FA1C4B1B68002B21D00023FB600023F9
:103D8000BB603A1D07F1080107F10C03184600F06B
:103D9000A5FE7968BB68FA6802920193022300933A
:103DA00000230A4610491148FFF7D4F80246104B89
:103DB0001A600F4B1B68002B01D001237B617B69CC
:103DC000002B09D14FF0500383F31188BFF36F8F9D
:103DD000BFF34F8F3B61FEE77B6918461837BD463E
:103DE00080BD00BFA0030020E46F00080D3F000865
:103DF000A403002080B58AB000AFF860B9607A6093
:103E00003B6000237B62FB68002B09D14FF050031D
:103E100083F31188BFF36F8FBFF34F8F3B62FEE7D1
:103E2000194B1B68002B2AD0BB687B617B68BB6188
:103E3000FB68FB61BB68052B18DCFFF78BFE0346B4
:103E4000022B09D1104B186807F1140100233A6BBB
:103E5000FEF7AAFC786212E00B4B186807F1140118
:103E600000230022FEF7A0FC786208E0064B1868E9
:103E700007F1140100233A68FEF790FD78627B6A2F
:103E800018462837BD4680BDA003002080B588B005
:103E900002AF786039601C4B1B68DB68DB687B61B4
:103EA0007B6904331846FEF757FB7B69DB69012BFE
:103EB00021D17B699A697B68D1187B683A687869F7
:103EC00000F0C8F80346002B15D000230093002310
:103ED0007A6800217869FFF78DFF38613B69002B14
:103EE00009D14FF0500383F31188BFF36F8FBFF3F5
:103EF0004F8FFB60FEE77B695B6A7869984700BF7C
:103F00001837BD4680BD00BF9803002080B584B03F
:103F100000AF786007F10803184600F057F8F86022
:103F2000BB681946F86800F003F800F0D5F8F1E72F
:103F300080B584B000AF78603960FFF735FA07F1DB
:103F40000803184600F066F8F860BB68002B30D113
:103F50003B68002B0AD17A68FB689A4206D8FFF7C3
:103F600031FAF9687868FFF791FF24E03B68002B8D
:103F700008D0134B1B681B68002B0CBF01230023C8
:103F8000DBB23B600F4B18687A68FB68D31A3A685B
:103F90001946FEF7ABFFFFF715FA0346002B0AD1CF
:103FA000094B4FF080521A60BFF34F8FBFF36F8FF2
:103FB00001E0FFF707FA00BF1037BD4680BD00BF24
:103FC0009C030020A003002004ED00E080B485B035
:103FD00000AF78600E4B1B681B68002B0CBF0123E1
:103FE0000023DBB21A467B681A607B681B68002BD3
:103FF00005D1074B1B68DB681B68FB6001E00023F1
:10400000FB60FB6818461437BD4680BC704700BF94
:104010009803002080B584B000AF7860FFF76EFA97
:10402000F8600B4B1B68FA689A4205D200F0EAF878
:104030007B6801221A6002E07B6800221A60044A51
:10404000FB681360FB6818461037BD4680BD00BF93
:10405000A803002080B586B000AFF860B9607A6030
:104060003B6000237B61FB68BA685A60FB68FA68B2
:104070001A61BA687B689A4212D87A683B68D21A89
:10408000FB689B699A4202D301237B611BE0104BC2
:104090001A68FB68043319461046FEF725FA12E049
:1040A0007A683B689A4206D2BA683B689A4202D361
:1040B00001237B6107E0074B1A68FB68043319464C
:1040C0001046FEF711FA7B6918461837BD4680BDC9
:1040D0009C0300209803002080B58CB002AF7FE0E5
:1040E000BB68002B7BDB3B697B627B6A5B69002BD7
:1040F00004D07B6A04331846FEF72EFA3B1D18469F
:10410000FFF788FF3862BB68092B69D801A252F813
:1041100023F000BF3D4100083D4100083D4100083B
:10412000E141000897410008CD4100083D410008E9
:104130003D410008E141000897410008FA687B6AA8
:104140009B69D118FB683A6A786AFFF783FF0346D8
:10415000002B45D07B6A5B6A786A98477B6ADB698B
:10416000012B3DD1FA687B6A9B691A4400230093B6
:1041700000230021786AFFF73DFEF861FB69002B00
:104180002ED14FF0500383F31188BFF36F8FBFF32D
:104190004F8FBB61FEE7FA687B6A9A617B6A9B6915
:1041A000002B09D14FF0500383F31188BFF36F8FB9
:1041B000BFF34F8F7B61FEE77B6A9A693B6AD11838
:1041C0003B6A3A6A786AFFF745FF09E07B6A93F831
:1041D0002C30002B04D1786A00F056FB00E000BFC1
:1041E000074B1B6807F1080100221846FEF76AFC1E
:1041F0000346002B7FF474AF00BF2837BD4680BD57
:10420000A003002080B588B002AF44E02B4B1B68B0
:10421000DB681B683B61294B1B68DB68DB68FB6064
:10422000FB6804331846FEF797F9FB685B6AF86889
:104230009847FB68DB69012B2DD1FB689B693A69C4
:104240001344BB60BA683B699A420ED9FB68BA68EE
:104250005A60FB68FA681A61184B1A68FB680433E5
:1042600019461046FEF740F915E00023009300239D
:104270003A690021F868FFF7BDFD78607B68002B84
:1042800009D14FF0500383F31188BFF36F8FBFF351
:104290004F8F3B60FEE7094B1B681B68002BB5D1B5
:1042A000064B1B687B61064B1B68044A1360044A7B
:1042B0007B69136000BF1837BD4680BD980300209E
:1042C0009C03002080B582B002AF00F025F9154BA9
:1042D0001B68002B20D11448FEF7B8F81348FEF7EE
:1042E000B5F8134B104A1A60124B104A1A6000239B
:1042F0000093114B114A0C210A20FEF7BFF9024628
:10430000084B1A60074B1B68002B05D0054B1B6838
:104310000B491846FEF7C2FD00F02CF900BFBD4660
:1043200080BD00BFA0030020700300208403002094
:10433000980300209C03002024040020AC030020EC
:10434000EC6F000880B485B000AFF860B9607A60A7
:10435000FB68043BFB60FB684FF080721A60FB68EF
:10436000043BFB60BB6823F00102FB681A60FB683A
:10437000043BFB60084AFB681A60FB68143BFB6067
:104380007A68FB681A60FB68203BFB60FB68184694
:104390001437BD4680BC70479D43000880B485B08B
:1043A00000AF00237B60104B1B68B3F1FF3F09D0C7
:1043B0004FF0500383F31188BFF36F8FBFF34F8F1C
:1043C000FB60FEE74FF0500383F31188BFF36F8F5C
:1043D000BFF34F8FBB6000BF7B68002BFCD000BFDA
:1043E0001437BD4680BC7047080000200000000064
:1043F000074B19680868B0E8F00F80F30988BFF32D
:104400006F8F4FF0000080F311884EF00D0E704753
:104410004402002000BF00BF06480068006880F327
:10442000088862B661B6BFF34F8FBFF36F8F00DFAE
:1044300000BF00BF08ED00E080B584B000AF314B95
:10444000FB60FB681B78DBB27B60FB68FF221A70A5
:10445000FB681B78DBB2FB70FB78DBB203F0500328
:10446000DAB2294B1A70294B07221A6009E0274B50
:104470001B68013B254A1360FB78DBB25B00DBB2B3
:10448000FB70FB78DBB203F08003802BEFD01F4B77
:104490001B68C3F10703042B09D04FF0500383F3CB
:1044A0001188BFF36F8FBFF34F8FBB60FEE7174BD1
:1044B0001B681B02154A1360144B1B6803F4E0636E
:1044C000124A13607B68DAB2FB681A70104B1B68E3
:1044D0000F4A43F4700313600D4B1B680C4A43F002
:1044E0007043136000F0B0F80A4B00221A60FFF727
:1044F00093FFFFF7CDF8FFF751FF00231846103761
:10450000BD4680BD00E400E0740400207804002073
:1045100020ED00E00800002080B483B000AF4FF031
:10452000500383F31188BFF36F8FBFF34F8F7B600E
:104530000E4B1B6801330D4A13600C4B1B68012B9B
:104540000ED10B4B1B68DBB2002B09D04FF0500390
:1045500083F31188BFF36F8FBFF34F8F3B60FEE78C
:1045600000BF0C37BD4680BC704700BF080000206C
:1045700004ED00E080B483B000AF104B1B68002B4B
:1045800009D14FF0500383F31188BFF36F8FBFF34E
:104590004F8F7B60FEE7094B1B68013B074A1360A6
:1045A000064B1B68002B04D100233B603B6883F360
:1045B000118800BF0C37BD4680BC70470800002042
:1045C000EFF30980BFF36F8F0D4B1A6820E9F00FEE
:1045D00010602DE908404FF0500080F31188FFF77C
:1045E00057F84FF0000080F31188BDE808401968C3
:1045F0000868B0E8F00F80F30988BFF36F8F704749
:104600004402002000BF00BF80B582B000AF4FF071
:10461000500383F31188BFF36F8FBFF34F8F7B601D
:10462000FEF77AFF0346002B03D0064B4FF0805273
:104630001A6000233B603B6883F3118800BF083792
:10464000BD4680BD04ED00E080B400AF0A4B0022FF
:104650001A600A4B00221A60094B1B68094AA2FB28
:1046600003239B09084A013B1360034B07221A608E
:1046700000BFBD4680BC704710E000E018E000E0DD
:104680000C000020D34D621014E000E080B485B02F
:1046900000AFEFF30583FB60FB680F2B13D9154ABE
:1046A000FB6813441B78FB72134B1B78FA7A9A420F
:1046B00009D24FF0500383F31188BFF36F8FBFF31C
:1046C0004F8F7B60FEE70D4B1B6803F4E0620C4BE1
:1046D0001B689A4209D94FF0500383F31188BFF346
:1046E0006F8FBFF34F8F3B60FEE700BF1437BD46AF
:1046F00080BC7047F0E300E0740400200CED00E0A3
:104700007804002080B58AB000AF78600023FB6198
:10471000FEF74AFE574B1B68002B01D100F00CF945
:10472000554B1A687B681340002B40F08C807B68E7
:10473000002B1CD008227B6813447B607B6803F04D
:104740000703002B13D07B6823F0070308337B603B
:104750007B6803F00703002B09D04FF0500383F36D
:104760001188BFF36F8FBFF34F8F7B61FEE77B68CC
:10477000002B68D0414B1B687A689A4263D8404B43
:104780003B623F4B1B687B6204E07B6A3B627B6A57
:104790001B687B627B6A5B687A689A4203D97B6A92
:1047A0001B68002BF1D1334B1B687A6A9A424AD0BE
:1047B0003B6A1B6808221344FB617B6A1A683B6AE8
:1047C0001A607B6A5A687B68D21A08235B009A4297
:1047D0001ED97A6A7B681344BB61BB6903F0070387
:1047E000002B09D04FF0500383F31188BFF36F8F74
:1047F000BFF34F8F3B61FEE77B6A5A687B68D21A32
:10480000BB695A607B6A7A685A60B86900F0F6F84A
:104810001A4B1A687B6A5B68D31A184A1360174BE5
:104820001A68184B1B689A4203D2144B1B68154A2E
:1048300013607B6A5A68104B1B681A437B6A5A6084
:104840007B6A00221A60FEF7BDFDFB6903F00703D7
:10485000002B09D04FF0500383F31188BFF36F8F03
:10486000BFF34F8FFB60FEE7FB6918462837BD4654
:1048700080BD00BF842400209024002088240020D4
:104880007C2400208C24002080B586B000AF7860A6
:104890007B687B617B68002B46D008235B427A698A
:1048A00013447B617B693B613B695A68204B1B6801
:1048B0001340002B09D14FF0500383F31188BFF34D
:1048C0006F8FBFF34F8FFB60FEE73B691B68002BC8
:1048D00009D04FF0500383F31188BFF36F8FBFF3FC
:1048E0004F8FBB60FEE73B695A68114B1B68134052
:1048F000002B19D03B691B68002B15D13B695A6806
:104900000B4B1B68DB431A403B695A60FEF74CFDBA
:104910003B695A68074B1B681344064A13603869A1
:1049200000F06CF8FEF74EFD00BF1837BD4680BDA5
:10493000902400208824002080B485B000AF4FF47C
:104940000053BB60274BFB60FB6803F00703002BA1
:104950000CD0FB680733FB60FB6823F00703FB60A8
:10496000BA68FB68D31A1F4A1344BB60FB687B60BC
:104970001D4A7B6813601C4B00225A607B68BA6832
:104980001344FB600822FB689B1AFB60FB6823F062
:104990000703FB60FB68154A1360144B1B68002279
:1049A0005A60124B1B6800221A607B683B603B68B0
:1049B000FA68D21A3B685A600C4B1A683B681A6056
:1049C0003B685B680A4A13603B685B68094A13608E
:1049D000094B4FF000421A6000BF1437BD4680BC3F
:1049E000704700BF7C0400207C2400208424002029
:1049F0008C240020882400209024002080B485B0DE
:104A000000AF7860274BFB6002E0FB681B68FB602F
:104A1000FB681B687A689A42F7D8FB68BB60FB6842
:104A20005B68BA6813447A689A4208D1FB685A688E
:104A30007B685B681A44FB685A60FB687B607B6834
:104A4000BB607B685B68BA681A44FB681B689A4263
:104A500018D1FB681A68144B1B689A420DD07B680A
:104A60005A68FB681B685B681A447B685A60FB687D
:104A70001B681A687B681A6008E00B4B1A687B6831
:104A80001A6003E0FB681A687B681A60FA687B6842
:104A90009A4202D0FB687A681A6000BF1437BD469C
:104AA00080BC70477C2400208424002080B485B022
:104AB00000AFF860B9607A60FB68064A1A60BB68AC
:104AC000054A1A607B6880221A6000BF1437BD4611
:104AD00080BC704794240020F024002080B485B06E
:104AE00000AFF860B9607A60FB68074A1A60BB687B
:104AF000064A1A607B684FF480721A6000BF143750
:104B0000BD4680BC704700BFF02600204C27002027
:104B1000B0B58EB000AFFBF7C1FF00F041F800F078
:104B2000AFF800F083F801224FF480511748FCF7EA
:104B3000F5FA00224FF480511448FCF7EFFA144BB9
:104B400007F11C041D460FCD0FC495E8070084E84B
:104B5000070007F11C0300211846FDF717FC024669
:104B60000C4B1A600C4B3C461D460FCD0FC495E80C
:104B7000070084E807003B4600211846FDF706FCC5
:104B80000246064B1A60FDF7FAFBFEE7000C0140F7
:104B900000700008A42B00202C700008203D00208D
:104BA00080B590B000AF07F1180328220021184605
:104BB00000F053FC3B1D00221A605A609A60DA60D4
:104BC0001A610123BB614FF48033FB6100233B6218
:104BD0000123BB6202237B634FF48033BB634FF43A
:104BE000E013FB6307F118031846FCF7AFFA03461E
:104BF000002B01D000F0B0F80F237B600223BB60D4
:104C00000023FB604FF480633B6100237B613B1D0D
:104C100002211846FCF71AFD0346002B01D000F0D4
:104C20009BF800BF4037BD4680BD000080B500AF97
:104C3000114B124A1A60104B4FF4E1325A600E4B7E
:104C400000229A600C4B0022DA600B4B00221A61A2
:104C5000094B0C225A61084B00229A61064B002234
:104C6000DA610548FCF78EFE0346002B01D000F008
:104C700073F800BF80BD00BF282C00200038014021
:104C800080B588B000AF07F1100300221A605A60A7
:104C90009A60DA601E4B9B691D4A43F020039361C2
:104CA0001B4B9B6903F02003FB60FB68184B9B695F
:104CB000174A43F008039361154B9B6903F00803FF
:104CC000BB60BB68124B9B69114A43F004039361BC
:104CD0000F4B9B6903F004037B607B6800224FF459
:104CE00070410C48FCF71AFA4FF470433B61012302
:104CF0007B610023BB610223FB6107F110031946AE
:104D00000448FCF7B1F800BF2037BD4680BD00BFA6
:104D100000100240000C014080B582B000AF786006
:104D20000120FDF77FFBFBE780B584B000AF786022
:104D30000023FB73074800F007FB00F01BFB034652
:104D4000FB73FB7B184600F041F90120FDF76AFB7D
:104D5000F3E700BF4870000880B400AF00BFBD4655
:104D600080BC704780B584B000AF184B9B69174A70
:104D700043F001039361154B9B6903F00103BB6092
:104D8000BB68124BDB69114A43F08053D3610F4B70
:104D9000DB6903F080537B607B6800220F216FF09A
:104DA0000100FBF7B4FF0A4B5B68FB60FB6823F074
:104DB000E063FB60FB6843F00073FB60044AFB6840
:104DC000536000BF1037BD4680BD00BF00100240D9
:104DD0000000014080B58AB000AF786007F114038D
:104DE00000221A605A609A60DA607B681B68264A63
:104DF000934245D1254B9B69244A43F480439361F8
:104E0000224B9B6903F480433B613B691F4B9B69C9
:104E10001E4A43F0080393611C4B9B6903F008038F
:104E2000FB60FB6840237B610223BB6103233B6281
:104E300007F1140319461648FCF716F880237B6126
:104E40000023BB610023FB6107F1140319461048DE
:104E5000FCF70AF80F4B5B687B627B6A43F0E06308
:104E60007B627B6A43F004037B620A4A7B6A53607D
:104E7000002205212520FBF74AFF2520FBF763FFD1
:104E800000BF2837BD4680BD0038014000100240F9
:104E9000000C01400000014080B400AF00BFBD46DF
:104EA00080BC704780B400AFFEE780B400AFFEE77F
:104EB00080B400AFFEE780B400AFFEE780B400AF7F
:104EC00000BFBD4680BC704780B500AFFBF72CFE2D
:104ED000FEF740FE0346012B01D0FFF795FB00BF14
:104EE00080BD000080B500AF074B1B681B6803F056
:104EF0002003202B02D0044B1B681B680248FCF7E0
:104F0000CDFE00BF80BD00BF282C002080B584B03E
:104F100000AF7860114B1B68002B02D10F4B104A79
:104F20001A600E4B1B68FB600C4B1A687B681344BD
:104F30006A46934207D900F05BFA02460C231360DD
:104F40004FF0FF3306E0054B1A687B681344034AB1
:104F50001360FB6818461037BD4680BD502B0020FB
:104F60008841002080B400AF154B1B68144A43F001
:104F700001031360124B5A681149124B13404B60E6
:104F80000F4B1B680E4A23F0847323F480331360A5
:104F90000B4B1B680A4A23F480231360084B5B68A1
:104FA000074A23F4FE035360054B4FF41F029A6037
:104FB000054B4FF000629A6000BFBD4680BC704751
:104FC000001002400000FFF800ED00E080B582B064
:104FD00000AF0346FB71FB790D2B1BD1214800F07C
:104FE000A3F9214800F0A0F9204B1B6800221A7099
:104FF0001F4800F045F81F4800F096F91E4800F0E1
:1050000093F9502200211D4800F027FA174B184A47
:105010001A6022E0FB797F2B12D1144B1B68144AD3
:1050200093421AD0114B1B68013B104A13600F4B7F
:105030001B6800221A70FB1D184600F075F90CE081
:105040000A4B1B68FA791A70084B1B680133074A30
:105050001360FB1D184600F067F900BF0837BD4616
:1050600080BD00BFE4700008E87000081400002054
:1050700026410020EC700008F07000082441002058
:1050800090B591B000AF78607868FBF76BF8034695
:1050900087F83C307B681B78002B00F0F5807C4B58
:1050A00000221A707B4B00221A70002387F83F30D1
:1050B0001CE0784B1B78102B1DD097F83F307A6896
:1050C00013441B78202B0CD1724B1B781946724A63
:1050D00097F83F3053546F4B1B780133DAB26D4B66
:1050E0001A7097F83F30013387F83F3097F83F3018
:1050F0001F2BDED900E000BF07F11C032022002196
:10510000184600F0AAF9634B1B78002B08D197F8DA
:105110003C2007F11C037968184600F093F984E0FD
:105120005D4B1B781A4607F11C037968184600F09E
:1051300089F9012387F83E3037E007F10C0310228C
:105140000021184600F089F997F83E30013B524A99
:10515000D35C01337A68D11897F83E304E4AD35C5D
:10516000184697F83E30013B4B4AD35C0133C31AD3
:105170001A4607F10C03184600F064F997F83E3020
:105180005C1E07F10C03184600F02DF90246434B54
:1051900043F824203E4B1B780133DAB23C4B1A70A3
:1051A00097F83E30013387F83E303A4B1B7897F83A
:1051B0003E209A42C1D3384B1B781A4607F11C0394
:1051C0007968184600F03EF907F10C03102200211F
:1051D000184600F042F92F4B1B78013B2E4AD35C56
:1051E00001337A68D01897F83C202A4B1B78013B92
:1051F0002949CB5C0133D31A1A4607F10C03014647
:10520000184600F01FF9224B1B781C4607F10C03CF
:10521000184600F0E8F80246204B43F824201C4BC7
:105220001B780133DAB21A4B1A703B7F3F2B02D145
:105230001B4B984729E0002387F83D3012E097F890
:105240003D30184A52F8332007F11C031146184626
:10525000FAF77EFF0346002B09D097F83D30013363
:1052600087F83D3097F83D30022BE8D900E000BFC9
:1052700097F83D30022B08D897F83D30094ADB00FB
:1052800013445B68984700E000BF4437BD4690BDBB
:10529000542B0020552B00207441002018000020C2
:1052A000A95200088C70000880B500AF034B1B6842
:1052B000184600F049F800BF80BD00BF1000002074
:1052C00080B500AF024800F03FF800BF80BD00BFCE
:1052D000F470000880B500AF0D4B1B78012B03D094
:1052E0000C4800F031F812E00B4B1B68002B03D187
:1052F0000A4800F029F80AE0074B1B68012B03D18C
:10530000074800F021F802E0064800F01DF880BDD3
:10531000542B0020FC7000081800002014710008B5
:10532000287100083871000880B582B000AF78603D
:105330000A23012279680348FCF771FB00BF083794
:10534000BD4680BD282C002080B584B000AF7860B9
:105350007868FAF707FF0346FB73FB7B9AB20A23D0
:1053600079680348FCF75BFB00BF1037BD4680BD82
:10537000282C002080B582B000AF0023FB71F91DFE
:105380004FF6FF7301220448FCF7E2FBFB79184655
:105390000837BD4680BD00BF282C0020002103E057
:1053A0000B4B5B58435004310A480B4B42189A424E
:1053B000F6D30A4A02E0002342F8043B084B9A4223
:1053C000F9D3FFF7CFFD00F019F8FFF7A1FB704705
:1053D000807300080000002028020020280200201E
:1053E00088410020FEE70A22002100F0F7BB000000
:1053F000014B1868704700BF5800002070B50025A9
:105400000C4E0D4CA41BA410A54209D101F0D0FDF7
:1054100000250A4E0A4CA41BA410A54205D170BD5C
:1054200056F8253098470135EEE756F8253098476D
:105430000135F2E778730008787300087873000884
:105440007C73000810B5431E0A44914200D110BD80
:1054500011F8014B03F8014FF7E70346024493426A
:1054600000D1704703F8011BF9E7002B2DE9F04745
:105470001E46BBBF03F100431E4600232D2388B008
:10548000149FDDE9121A27F02007462F1446109DBD
:105490000B7004D0452F00D10135022300E0032317
:1054A00007AA049206AACDE902A2CDE90035224658
:1054B000334600F039FC472F804602D1119BDB07B1
:1054C00026D5462F08EB050911D198F80030302B6E
:1054D0000AD10022002320463146FBF76FFA18B9A3
:1054E000C5F10105CAF80050DAF8003099440022ED
:1054F000002320463146FBF761FA38B93022079B7A
:105500004B4505D2591C07911A70F8E7CDF81C904D
:105510004046079B159AA3EB0803136008B0BDE84B
:10552000F087F7B50029B4BF2D232B230446B8BF5D
:105530004942092904F8022B437021DD0DF10703CC
:105540001F460A2691FBF6F506FB1511092D01F100
:10555000300103F8011C03F1FF32294609DC303128
:10556000023B02F8011CBB42224604D3101A03B0CE
:10557000F0BD1346E6E713F8012B04F8012BF2E720
:10558000302319448370021DC170EFE72DE9F04FFD
:1055900091B00C461A9F93461E46054601F07CF9D1
:1055A000036818460993FAF7DDFD00230E933B6864
:1055B0000A90073323F0070303F1080294F81880D8
:1055C000D4F800A03A60D3E90023C4E91223D4E957
:1055D000127929F000430B934FF0FF32A64B384667
:1055E0000B99FBF71DFA68BB4FF0FF32A24B384610
:1055F0000B99FBF7F7F928BB0022002338464946F0
:10560000FBF7E6F910B12D2384F843309B4F9C4BF8
:10561000B8F1470F98BF1F4603234FF000092361DD
:105620002AF00403236000965B460FAA2146284611
:1056300000F0E2F9013040F090804FF0FF3011B0FF
:10564000BDE8F08F3A464B4638464946FBF7E8F945
:1056500010B18C4F8C4BDBE763684AF48062591CB5
:105660000DA80EA940D1062363604FF0000C0DF188
:105670003303CDE9012363682260CDE90308009379
:105680003A464B46CDE9051C2846FFF7EEFE08F0EA
:10569000DF03472B074609D10D9BD81C02DB62684C
:1056A000934247DDA8F102085FFA88F8B8F1650F68
:1056B0000D9924D80139424604F150000D91FFF7AD
:1056C00030FF0E9A81461318012A236102DC2268FA
:1056D000D10701D5013323619DF83330002BA2D0CF
:1056E0002D2384F843309EE7B8F1670F00F06E81F8
:1056F000B8F1470FB9D1002BB7D10123B4E7B8F106
:10570000660F19D1002963680CDD216113B9226885
:10571000D20702D501330B4423610D9B4FF00009E2
:10572000A365D9E713B92268D00701D50233F3E79F
:105730000123F1E74FF06708DDE90D32934205DB05
:1057400022682361D107E8D50133E5E7002BCCBF00
:105750000123C3F102031344DEE723685A0507D48B
:1057600023693A4659462846B047013029D164E7B3
:10577000B8F1650F40F2D780D4E91201002200236E
:10578000FBF71CF988B30123404A59462846B04725
:1057900001303FF452AFDDE90D239A4202DB23686A
:1057A000D8070ED5DDE9092359462846B047013010
:1057B0003FF443AF002704F11A080E9B013BBB42A4
:1057C00009DC23689F0700F1FD80E0680F9B984289
:1057D000B8BF184633E70123424659462846B0472A
:1057E00001303FF42AAF0137E7E70D9B002B2BDC9C
:1057F0000123264A59462846B04701303FF41DAFE1
:105800000D9B23B90E9B13B92368D907D9D5DDE9C0
:10581000092359462846B04701303FF40EAF4FF0F8
:10582000000804F11A090D9B5B42434501DC0E9B05
:1058300097E701234A4659462846B04701303FF4CE
:10584000FCAE08F10108EEE70E9AA36D9A42A8BFDC
:105850001A46002A904607DD134659463A4628461E
:10586000B04701303FF4E9AE04F11A034FF0000AEB
:1058700028EAE8780B9315E0FFFFEF7F50710008EE
:105880004C71000858710008547100085C710008E0
:1058900001230B9A59462846B04701303FF4CDAE5C
:1058A0000AF1010AD4F85890A9EB08035345EFDC3C
:1058B000DDE90D239A424F4414DB2368DA0711D443
:1058C0000E9B0D99A3EB0902A3EB01099145A8BF1B
:1058D0009146B9F1000F0DDC002729EAE97904F1BE
:1058E0001A0818E0DDE9092359462846B047013077
:1058F000E6D1A2E64B463A4659462846B047013023
:10590000EAD19AE60123424659462846B04701307B
:105910003FF493AE0137DDE90D239B1AA3EB090396
:10592000BB42EFDC4DE70E9A012A01DCDB0738D5DC
:1059300001233A4659462846B04701303FF47DAE30
:10594000DDE9092359462846B047013007F1010730
:105950003FF473AED4E912010E9B002203F1FF382D
:105960000023FBF72BF8C0B943463A465946284670
:10597000B04701300DD160E6012342465946284622
:10598000B04701303FF459AE01370E9B013BBB429B
:10599000F2DC4B4604F15002E4E6002704F11A0859
:1059A000F3E70123E1E70123424659462846B04781
:1059B00001303FF442AE0137E3680F9A9B1ABB42B5
:1059C000F1DC02E7002704F11908F5E7002B3FF4AA
:1059D00094AE4FF0000CCDE9051C0DF133012260AF
:1059E000CDE90308CDE9012100933A464B4628460C
:1059F000FFF73BFD07464FE62DE9F04791461F466E
:105A00008A680B6906469342B8BF1346C9F800304E
:105A100091F843200C46DDF8208012B10133C9F81B
:105A200000302368990642BFD9F800300233C9F824
:105A30000030256815F0060507D104F1190AE3685E
:105A4000D9F800209B1AAB4229DC94F84330226835
:105A5000003318BF012392062ED404F143023946C5
:105A60003046C047013021D02368E56803F00603C3
:105A7000042B18BF0025D9F800204FF0000908BFFB
:105A8000AD1AA368226908BF25EAE5759342C4BF31
:105A90009B1AED181A344D451AD1002008E0012355
:105AA000524639463046C047013003D14FF0FF30EF
:105AB000BDE8F0870135C2E73020E11881F84300E6
:105AC0005A1C94F845102244023382F84310C4E76C
:105AD0000123224639463046C0470130E6D009F15D
